:020000040800F2
:10000000A8070020610200086D3800084934000884
:1000100069380008C1140008813800080000000099
:10002000000000000000000000000000753800081B
:10003000D114000800000000713800087938000869
:100040007B0200087B0200087B0200087B0200089C
:100050007B0200087B0200087B0200087B0200088C
:100060007B0200087B0200087B020008C514000820
:100070007B0200087B0200087B0200087B0200086C
:100080007B0200087B020008051400087B020008C0
:100090007B0200087B0200087B0200087B0200084C
:1000A0007B0200087B0200087B0200087B0200083C
:1000B0007B0200087B0200087B0200087B0200082C
:1000C0007B0200087B0200087B0200087B0200081C
:1000D0007B0200087B0200087B0200087B0200080C
:1000E0007B0200087B0200087B02000800F002F897
:1000F00000F0A6F814A696E8000CB244B344DA4522
:1001000001D100F09DF8BAE80F000FA696E8300084
:10011000A5EB040504EB0607AAEB0704A7F101070A
:100120004FEA15154FEA3414A4F10104AC4201D38F
:1001300000F086F813F0010F18BFFB1A43F001031B
:1001400000F001F8DBE718475C4500007C45000043
:10015000103A24BF78C878C1FAD8520724BF30C8F3
:1001600030C144BF04680C60704700007047000055
:100170000023002400250026103A28BF78C1FBD8B0
:10018000520728BF30C148BF0B6070476E2900F08E
:100190008C82702900F0CF83662904F0E9816529FB
:1001A00004F0E681672904F0E381612904F0E2812B
:1001B00003681B0A28BF41F08001692900F0AA806A
:1001C000642900F0A780752900F0A4806F2900F051
:1001D0005D83782900F09B83E92900F0F782E42908
:1001E00000F0F482F52900F0F182EF2900F05A8343
:1001F000F82900F09A830368DB0928BF41F08001E9
:10020000632900F07F87732900F08487E32900F0D9
:100210008F87F32900F09487002070471FB500F006
:10022000E5FF04000020002104F08CF9401C606010
:100230000020002104F070F9E0601FBD10B510BD72
:1002400000F0A6FF1146FFF7E9FF03F03FFC01F0C5
:1002500083F803B4FFF7F2FF03BC01F0CBF8000012
:100260000948804709480047FEE7FEE7FEE7FEE74A
:10027000FEE7FEE7FEE7FEE7FEE7FEE70448054986
:10028000054A064B704700007D380008ED00000865
:10029000A8010020A8070020A8030020A803002030
:1002A0001CB50C46064B7B4469460090204600F086
:1002B00016FA04460020694600F024FA20461CBDC8
:1002C0005B0400000FB41CB5084B06AA7B446946CA
:1002D0000090059800F003FA04460020694600F0FB
:1002E00011FA20461CBC5DF814FB00003504000028
:1002F00009684A0501D540B27047C905FCD500B26E
:10030000704709684A0501D5C0B27047C905FCD5D8
:1003100080B270472DE9F041064600241068752927
:10032000314616A510D0FFF7E3FF002802DA40425D
:1003300013A507E031688A0701D512A502E0490735
:1003400004D511A5012401E0FFF7DBFF00210A22FB
:1003500006F1240709E0B0FBF2FCB0FBF2F302FB6C
:100360001C00303078541846491C0028F3D123462D
:100370002A463046BDE8F04100F03EB900000000DA
:100380002D0000002B000000200000002DE9F05F90
:10039000894604464FF0000ADFF874B1FB44C0F808
:1003A00020A02046E1688847002874D0252806D080
:1003B000D4E901219047206A401C2062F1E7002621
:1003C0005F462046E16888472028054607DB312D37
:1003D00005D2781910F8200C08B10643F1E7B007F0
:1003E00001D526F00406C4F81CA00027C4F818A004
:1003F0002A2D09D0284604F087F838B304EB870883
:10040000303DC8F8185019E059F8041B204604EB99
:1004100087029161E1688847012F054618D1E0699C
:10042000002820DA26F020061DE0D8F8180000EB9E
:10043000800005EB40003038C8F818002046E1681D
:100440008847054604F060F80028EED1012F0AD055
:100450002E2D08D12046E16888477F1C0546022FD3
:1004600046F02006C4DBA069002803DA404246F0CB
:100470000106A061F00701D026F010066C2D0BD00C
:10048000682D09D04C2D39D06A2D35D0742D35D03A
:100490007A2D33D016E038E0E1682F4620468847B1
:1004A000B842054609D16C2F26D04FF48060E16830
:1004B000064320468847054604E06C2F1AD04FF4C7
:1004C000807006430DB3A5F14100192802D82035EC
:1004D00046F400664A462946204626604E46FFF707
:1004E00055FE80B101280BD0F61D26F0070000F163
:1004F000080956E74020E4E78020D8E70020D6E747
:1005000006F104094DE7284652E7206ABDE8F09F4E
:10051000D841000010B5431C02E010F8011B71B176
:100520008107FAD14FF0013202C88C1A8C4314EAC9
:10053000C211F9D0C01A0A0603D0C01E10BDC01ADD
:1005400010BD0A0401D0801E10BD0902FCD0401E5F
:1005500010BD70477047704770B5044685690068E4
:10056000C10601D5302600E02026C00707D070BDA7
:10057000D4E9012130469047206A401C20626D1E5C
:10058000F6D570BD70B5044685690078C00707D1FF
:1005900070BDD4E9012120209047206A401C2062D0
:1005A0006D1EF6D570BD70B50C460546012A05D006
:1005B0002878800600D5EA69002302E0012305E0DF
:1005C0005B1C934202D2E05C0028F9D1A869E618CE
:1005D000C01AA861286A184428622846FFF7BCFFA1
:1005E00004E0D5E9012114F8010B9047B442F8D397
:1005F0002846FFF7C7FF70BD2DE9F0470D46994625
:100600009246044600F124080168880604D5E06992
:1006100021F01001216000E00120A84201DD471B0C
:1006200000E00027A1697A1902EB0900081AA0610D
:100630002078C00602D42046FFF78EFF002608E08F
:10064000D4E901211AF806009047206A401C761C64
:1006500020624E45F4DB2078C0060AD52046FFF71D
:100660007BFF06E0D4E9012130209047206A401C3E
:100670002062381EA7F10107F4DC07E0D4E901216C
:1006800018F805009047206A401C2062281EA5F13A
:100690000105F3DC2046FFF775FF2078000602D540
:1006A0000220BDE8F0870120FBE711680268006ABC
:1006B000530501D508700AE0D30501D5088006E08E
:1006C000130603D5C217C1E9000200E0086001204B
:1006D0007047000001694A1C02610878704700B544
:1006E0008FB0CDE901310021059105497944CDE96B
:1006F000031011466846FFF749FE0FB000BD000029
:10070000E5FFFFFF0A6802F8010B0A60704700006E
:100710002DE9FF5F15468A460446DFF8AC80F844B1
:100720000027D8E900103E46CDE9001010E03AF865
:1007300016106A4602A800F007FD411C07D0217878
:10074000890603D5E269391891420DD80744761C11
:100750002078800602D5E069B84205DDAE42E6DBCE
:100760003AF816000028E2D1A069C01BA06120461B
:10077000FFF7F2FED8E90010CDE90010002017E0E5
:100780003AF818106A4602A800F0DEFCB0F1FF3F0C
:1007900081460BD000250DF1080B05E0D4E90121BD
:1007A0001BF8050090476D1C4D45F7D308F101007B
:1007B000B0428046E4DB206A384420622046FFF7DE
:1007C000E1FEBDE8FF9F00006A3E00002DE9F04118
:1007D0008046D21D22F007020025D2E90002F52949
:1007E00015A614D0011E72F1000106DA0023D0EB29
:1007F000030063EB020211A608E0D8F800108B0793
:1008000001D50FA602E0490701D50EA60125114624
:10081000002408F1240704E000F098F830323A553B
:10082000641C50EA0102F7D12B463246214640466D
:10083000BDE8F041FFF7E0BE000000002D00000021
:100840002B0000002000000030B4002100F124043F
:1008500008E002F00705D208303542EA4372DB08AF
:100860006554491C52EA0305F3D10468002310A221
:10087000250708D504F020040C4304D0C4690123E3
:100880000CA2641EC46130BCFFF7B6BE10B50446AE
:1008900021461068FFF735FD02462046BDE81040AE
:1008A0000023D1E7D21D22F00701D1E90023CBE7D5
:1008B0000000000030000000F0B40D46018809057A
:1008C00002D5214C7C4402E01F4C7C440E340021B4
:1008D00000F1240608E002F00F071209E75D42EA82
:1008E00003721B097754491C52EA0307F3D10278BB
:1008F0000023120704D5702D06D009B1022311344C
:100900002246F0BCFFF778BE01231034F8E770B53B
:1009100004460D4621461068FFF7F3FC02462946BF
:100920002046BDE870400023C6E7D21D22F0070331
:10093000D3E90023C0E70368126843F02003036093
:100940000823C3610023B7E7CC3C000030B5B0F109
:100950000A0271F100034FEA900E4EEA817EB0EB7D
:100960000E0061EB91014FEA101E4EEA017E10EB82
:100970000E0041EB11114FEA102E4EEA016E10EB02
:100980000E0041EB11214FEA104E4EEA014E10EBE2
:100990000E0041EB1141401841F100014FEAD00037
:1009A00040EA41704FEAD1014FEA810444EA907471
:1009B00010EB800544EB01046D1944EB0404521B59
:1009C000A3414FF0000348BF0A3200D530BD401CA0
:1009D00041F1000130BD2DE9FF4F0C461E464FF09E
:1009E000FF378BB0D2E90001DDF860800A908A46BB
:1009F000C1F30A5505B93D46002108464FF00000F5
:100A0000BAF1000F00F4400005DA00EB80004FF46B
:100A1000400101EA50004FEA9059B9F1010F00DDA1
:100A2000B9460A9850EA4A000ED044F61050A5F292
:100A3000FF3545432F14B8F1000F1ED07542291E13
:100A40001EDDC9F100021CE0B8F1010F4FF00000FB
:100A500001D0302103E0F24305E02154401CB042B4
:100A6000FBDB30460022002121540B99C1F808809D
:100A7000C1E900200FB0BDE8F08FBD1B6D1CDEE7A3
:100A80004A4600DA694206A800F0F4FB06AB93E898
:100A9000070003AB83E8070050460A9903F058F9B2
:100AA0008DE80700A0F500501F3800900398002D36
:100AB0000ADD42F21F014A460844002303A90390BD
:100AC000684603F0C1FB09E0A0F500504A461F3814
:100AD000002303A90390684603F0CBFB8DE80700D1
:100AE0000004000C03D04FF0FF30410800E0104636
:100AF000B8F1000F03D00022009215461EE0751ECB
:100B000005D4FFF723FF303262556D1EF9D5B34689
:100B10000122084302D000227F1C04E02078302804
:100B200001D100227F1E002A099784D01DE0112DDB
:100B300007DAFFF70BFF303262556D1C50EA0102F5
:100B4000F5D1084302D00098C8B10EE00021681E1C
:100B500005E0235C625C63542254401E491C8142C0
:100B6000F7DBAB46A81B401E0990002004F80B00E1
:100B70000B98099AC0F80880C0E9002B7AE7112683
:100B80004FF0000857E72DE9F04F88460446D21D84
:100B900022F0070191B0D1E90001CDE90A0103F08B
:100BA0009FFC02460B98C00F01D02D2007E0206863
:100BB000810701D52B2002E0202101EAC000032A91
:100BC000099001D0072A05DB03464146204600F084
:100BD00011FB0BE12078800601D5E06900E00620DA
:100BE000B8F1650F814606D0B8F1660F18D0B8F19C
:100BF000670F70D131E00020B9F1110F009001DBD7
:100C0000112301E009F101030AAA01A90CA8FFF7C9
:100C1000E2FEDDE90C70002609F10105834647E09C
:100C200001204B4600904FF000470AAA01A90CA8EA
:100C3000FFF7D1FEDDE90DB00C995D46002610B935
:100C400009F101000D18B9EB050003D4C0F1FF361E
:100C500009F10105A5EB09002BE0B9F1010F01DA5B
:100C60004FF001090020B9F1110F0090484601DD55
:100C7000112300E003460AAA01A90CA8FFF7ABFE66
:100C8000DDE90C704D4600268346207800070AD423
:100C9000AB4500DA5D4601A8012D04DD411911F8CC
:100CA000011C302907D04F4502DA17F1040F04DA8E
:100CB000012082460FE06D1EEEE7002F02DCED1BE7
:100CC0003E4403E0781CA84200DD7D1CB81B00F107
:100CD000010A4FF000472078000703D4AA4501DB42
:100CE0004FF0FF3A0021B7F1004F0DF143088DF8A6
:100CF000431024D002202B23002F01DA7F422D2322
:100D00000A21021EA0F1010000DC5FB197FBF1FC9B
:100D100097FBF1F201FB1C7C17460CF1300C08F834
:100D200001CDEEE7A8F1010003702188090501D586
:100D3000452100E06521A0F1010800F8011C099897
:100D40000FA9A1EB0807FF1D00B10120411901EB1C
:100D5000EA70A1693844081A401EA0612078C006D4
:100D600002D42046FFF7F8FB099828B1D4E9012105
:100D70009047206A401C20622078C00622D5204679
:100D8000FFF7EAFB1EE0002E04DBB34502DD01A8FD
:100D9000805D00E03020D4E901219047206A401CAA
:100DA0002062761CAAF101005FEA000A0AD100F075
:100DB0001DFAC0680168405CD4E901219047206AAF
:100DC000401C2062281EA5F10105DCDC07E0D4E907
:100DD000012118F8010B9047206A401C2062381E40
:100DE000A7F10107F3DC2046FFF7CCFB032011B08D
:100DF00041E600002DE9F04F04460D46D21D22F0D9
:100E0000070089B0D0E900974846394603F068FBEF
:100E10000246F80F01D02D2307E02068810701D595
:100E20002B2302E0202101EAC0038DF820300BB112
:100E3000012000E00020032A824601D0072A04DBBB
:100E40002946204600F0D6F93FE12078800601D4FB
:100E50000D2500E0E569C7F30A560D2D49DA00219A
:100E60004FEA175B08464FF00000002F00F44000E7
:100E700007DA00EB80004FF4400100EBD07001EA8C
:100E800060008115012901DD4FF0FF3100224FEA9A
:100E9000850CBCF1180F06D31346ACF118004FF0C7
:100EA0008052C24003E04FF4801323FA0CF30CF19C
:100EB0000C0CBCF1200F04D3ACF1200C09FA0CF09F
:100EC00001E007FA0CF000294FF0004801DD18B9E5
:100ED0000FE00ED140450CD319EB02095F4121B957
:100EE000404502D19F4329EA0209BBEB175F00D0BE
:100EF000761C2088000502D57B48784402E07A48B9
:100F00007844193808AA302302F80A30037C0AF121
:100F10000101002E0AF1020A53546A4602DC4FF026
:100F2000300101E04FF031014FF001088DF8001061
:100F300002D0A6F2FF3603E059EA470100D06B4E1B
:100F4000002D02DC2178090704D54FF002082E217C
:100F50008DF80110C44600210BE0C7F303433F01A5
:100F6000C35C491C6D1E02F80830052908F1010810
:100F700001DA002DF1DC00210CE000EB1973491CB3
:100F80001B786D1E082902F808304FEA091908F18C
:100F9000010801DA002DF0DC21688B0602D516E08D
:100FA000A8F10108E04505DD02EB080313F8013C58
:100FB000302BF5D0B8F1000F09DD02EB080313F870
:100FC000013C2E2B03D1090701D4A8F10108002D03
:100FD00005DD3E2102F808106D1E08F10108407C75
:100FE000002E02F8080008F1010804DA2D207642EC
:100FF00002F8080002E02B2002F808000A214FF452
:101000007A70864208F101080BDB96FBF0F330336F
:1010100002F8083096FBF0F308F1010800FB1366B4
:1010200001E0642E0CDB642096FBF0F3303302F811
:10103000083096FBF0F308F1010800FB136601E0AD
:101040000A2E06DB96FBF1F0303002F8080008F1BA
:10105000010896FBF1F001FB1060303002F8080047
:10106000A16908F1010808EB050202EB0A00081A61
:10107000A0612078C00602D42046FFF76DFA216AED
:1010800008AE01EB0A00206204E0D4E9012116F861
:10109000010B9047BAF1010AF7D22078C00602D5B9
:1010A0002046FFF759FA6E4609E016F8010B3E2874
:1010B0000FD0D4E901219047206A401C2062B8F18A
:1010C0000108F2D22046FFF75DFA09B00320BDE81F
:1010D000F08F206A2844206203E0D4E90121302007
:1010E00090476D1EEBD3F8E7D136000002FCFFFFFE
:1010F00010B5436913B1AFF3008001E0FFF753FA75
:10110000012010BD127800F124010A7000224A70FB
:101110000122EDE711684FF0FF32E9E710B54369AE
:1011200013B1AFF3008001E0FFF7F2FA012010BD28
:10113000128800F1240182840022C2840122EDE79A
:1011400011684FF0FF32E9E72DE9F04116460C46F1
:10115000054600F043F8036893F80101012807D021
:10116000FF2C12D8185D80B101202C70BDE8F081F1
:10117000D3F807013246214603F20713C718284661
:10118000BC46BDE8F041002360474FF0FF30EDE77B
:10119000754600F0EBF8AE4605006946534620F070
:1011A0000700854618B020B5FFF768F8BDE8204075
:1011B0004FF000064FF000074FF000084FF0000B13
:1011C000AC46ACE8C009ACE8C009ACE8C009ACE882
:1011D000C00921F007018D467047000010B500F0EE
:1011E00005F8001D10BD00BF5D33000000487047CA
:1011F000300000202DE9F0411F4604460326016817
:10120000072A01F4006004DB08B116A505E016A565
:1012100003E008B115A500E015A521F0100020603D
:10122000A069C01EA0610FB1401EA0612046FFF75B
:1012300093F94FB1D4E9012138469047206A401C08
:101240002062C01C206206E0206AFAE7D4E901218E
:1012500015F8010B9047761EF8D22046FFF792F959
:10126000BDE8F0814E414E006E616E00494E460071
:10127000696E66002DE9F047814616468AB035480A
:1012800078440DC88DE80D0032487844801C03ACCA
:101290000DC884E80D0041F69B300844372190FBCF
:1012A000F1F290FBF1F5A5F1800501FB12041B3C66
:1012B00002D56442012000E00020DFF898A08046BB
:1012C0000027FA44AAF1BE0A0EE0E0070AD032462F
:1012D000684607EB470101230AEB810102F0C9FFD1
:1012E0008DE8070064107F1C002CEED1194F7F445D
:1012F000AE3F19E0E80715D007EB04100DF1180A0E
:1013000090E80E008AE80E00C068F04201D19819FA
:1013100008903246012306A903A802F0AAFF03ABF6
:1013200083E807006D10641C002DE3D14FF001032A
:1013300032466946B8F1000F03A802D002F084FFDC
:1013400001E002F096FFC9E90001C9F808200AB0DF
:10135000BDE8F087DC33000010B50446AFF3008031
:101360002046BDE81040FEF774BF000000487047FB
:10137000100000204FF0013C50F8042B51F8043BC2
:101380009A4221D1A2EB0C03934313EACC1317D159
:1013900050F8042B51F8043B9A4215D1A2EB0C03F0
:1013A000934313EACC130BD150F8042B51F8043BB0
:1013B0009A4209D1A2EB0C03934313EACC13DBD07E
:1013C0004FF00000704700BFD01A01BAB1FA81F1A6
:1013D00001F0180122FA01F0CB40DBB2C0B2C01A12
:1013E000C1F120012CFA01F3D11A914311EAC31182
:1013F000E6D1704701491820ABBEFEE72600020087
:101400007047000040F28800C2F2000000F02CB9E2
:10141000B0B582B004460020019021688A68D207E6
:101420004BD1886840F00100886040F20800C2F2A9
:10143000000000684DF68361C4F21B31A0FB01017E
:10144000880C01900198A0B1019801380190019891
:1014500078B1019801380190019850B10198013894
:101460000190019828B10198013801900198002855
:10147000EAD100F047FE21688968C9071CD10546FA
:1014800003E000BF8068C00716D100F03BFE411B9F
:1014900020680329F6D38168C907F3D1A06A40F018
:1014A0001000A062E06A40F00100E062002084F8D1
:1014B0002400012002B0B0BD002002B0B0BD000089
:1014C000FEE7000040F2C000C2F2000000F0EABBFC
:1014D00070470000EFF3108072B600BFFEE7000017
:1014E0007047000010B581B00022009290F82420CF
:1014F000012A03D10221084601B010BD4B68012228
:10150000062B80F8242033D8D0F800C003EB8303E7
:101510005A1F1F23DCF834E003FA02F40B682EEAAA
:10152000040403FA02F22243CCF83420092B03EB23
:10153000430249D9DCF80CE01E3A0724896894403C
:101540002EEA0404914023F001022143102ACCF832
:101550000C1043D142F20841C4F20101A1F108028A
:10156000944543D0816A41F020018162012136E037
:10157000D0F800C00C2B03EB830213D8233A1F23AF
:10158000DCF830E003FA02F40B682EEA040403FAF4
:1015900002F22243CCF83020092B03EB4302C9D8D6
:1015A00012E000BF413A1F23DCF82CE003FA02F4FA
:1015B0000B682EEA040403FA02F22243CCF82C2032
:1015C000092B03EB4302B5D8DCF8103007248968F7
:1015D0009440A34391401943CCF8101000210022FD
:1015E00080F82420084601B010BD00BF0A6812022E
:1015F000F4D40A68102B42F400020A60EED140F2E3
:101600000801C2F2000109684DF68362C4F21B3280
:10161000A1FB0212910C01EB81014900009100999C
:101620000029DBD000990139009100990029D5D01B
:1016300000990139009100990029CFD00099013912
:10164000009100990029C9D00099013900910099B1
:1016500000294FF00001E5D1C1E70000704700000C
:101660000068C06C7047000070B5044600680568EB
:101670004668B10627D515F0020124D0A16AC90633
:1016800003D4A16A41F40071A162816801F4602170
:10169000B1F5602F10D1217B71B9416821F0200193
:1016A0004160A06A20F48070A062A06AC00403D4E4
:1016B000A06A40F00100A0622046FFF7CFFF20683B
:1016C0006FF012010160310633D515F0040130D0FE
:1016D000A16AC90603D4A16A41F40051A1628168DC
:1016E00001F4E041B1F5E04F10D1416821F08001F3
:1016F0004160A06A20F48050A062A06AC00511D4A5
:10170000A06A40F00100A0620CE000BF41684905FA
:1017100008D4816801F46021B1F5602F02D1217BEA
:101720000029E2D02046FFF7DBFE20686FF00C01B5
:10173000016070060ED515F0010008BF70BDA06AEB
:1017400040F48030A062204600F0B6F820686FF0C8
:101750000101016070BD0000002804BF0120704736
:10176000B0B50446806A28B121688868C0070CD1EA
:1017700015E000BF0020E06284F82400204600F05D
:101780009DF821688868C00709D0886820F00100AA
:10179000886000F0B7FC21688A68D20726D1A06A69
:1017A000C0063AD4A06A41F2021290430230A0620D
:1017B000E069D4E9013240EA030C531EB3FA83F323
:1017C0005D091346B2F5807F18BF2B02207D257B73
:1017D00001284CEA450030D135B3A56A45F0200513
:1017E000A562E56A45F00105E56226E0054602E0EE
:1017F0008868C007D3D000F085FC401B216803280F
:10180000F6D38868C007F3D0A06A40F01000A06249
:10181000E06A40F00100E062A06AA06A40F01000B7
:10182000A0620120B0BD00BFD4F818C04EF600057C
:10183000CFF6FF7505EB4C352B434D68B2F5807F35
:1018400025F4694543EA05034B608B684FF2FD754B
:10185000CFF6E17503EA050343EA00038B6001D08C
:10186000012A07D122690023CFF6F07303EB02525D
:1018700001E000BF0022CB6A23F470031A43CA625E
:10188000896840F6FE62CFF61F721140814207D18F
:101890000020E062A16A012262F30101A162B0BDF1
:1018A000A06A40F0100020F00200A062E06A40F060
:1018B0000100E0620120B0BD7047000070B586B045
:1018C000044640F60000C4F20100216800F5E05231
:1018D000002691420596049602D006B070BD00BF66
:1018E00041F21801C4F202010A6842F400720A606F
:1018F0000A6802F400720192019A0A6842F0040236
:101900000A60096801F00401019101990121029125
:101910000321039102A900F0EDFA40F2C00508206E
:10192000C2F20005C4F202004FF48072C5E900065D
:1019300005F1100080214FF480634FF0200C80E807
:101940000C102846C5E90261EE6100F07BFA002820
:1019500018BFFFF7BFFD12200021002225626C6234
:1019600000F02CFF122000F017FF06B070BD000041
:10197000F0B581B000270D460446009700F0C2FB89
:1019800021688A68D20543D406464868C00503D456
:10199000C86A10F4700F45D040F20800C2F200008F
:1019A0000768022000F046FF216844F624130A6904
:1019B000B7FBF0F0C2F292431A4206D1CA6844F66D
:1019C0002413C0F292031A425ED00A6942F2924393
:1019D000C1F249231A4207D1CA6842F29243C0F2C7
:1019E00049031A4200F0C0800A6949F24923C0F253
:1019F00024031A424FF0FC0257D1CF681F4208BFA0
:101A00005422009B02FB00F7BB4253D3C3E000BF4C
:101A1000A06A40F02000A06284F82470012001B088
:101A2000F0BD00BF0868800700F1B580681C00F0B9
:101A3000A880FDB90868800772D50868800700F1A2
:101A4000AA80086880076BD50868800700F1A3802A
:101A50000868800764D50868800700F19C800868E2
:101A600080075DD508688007E4D594E008688007A2
:101A700000F1918000F046FB801B2168A842F5D957
:101A800008688007F2D44BE00A6942F29243C1F23F
:101A900049231A424FF0290207D1CB6842F29247FC
:101AA000C0F249073B4208BF1422009B02FB00F72B
:101AB000BB4270D2681C4FD055BB0098B8422FD3A0
:101AC0000098013000900098B84264D20098B84263
:101AD00026D30098013000900098B8425BD200985D
:101AE000B8421DD30098013000900098B84252D2FD
:101AF0000098B84214D30098013000900098B84282
:101B0000DBD348E00098013000900098B84233D20F
:101B100000F0F8FA801BA842F4D90098B842F1D23C
:101B2000A06A40F00400A062002084F82400032092
:101B300001B0F0BD0098013000900098B8422AD260
:101B40000098013000900098B84224D200980130EB
:101B500000900098B8421ED2009801300090009882
:101B6000B842E7D317E000BF5422009B02FB00F706
:101B7000BB429FD30FE000BF21680CE008688007DC
:101B800009D40868800706D4086880075CBF086825
:101B90005FEA8070F2D56FF012000860A06A40F42E
:101BA0000070A062886800F46020B0F5602F01D159
:101BB000207B18B1002001B0F0BD00BFA06A20F466
:101BC0008070A062A06AC004F4D4A06A40F0010052
:101BD000A062002001B0F0BD10B5044690F82400CA
:101BE000012804BF022010BD012084F824002046F3
:101BF000FFF70EFC20B1002084F82400012010BD66
:101C000042F2044C2068A16AC4F2010C40F2013295
:101C100091430CF57F7201F580719042A16233D03F
:101C2000A16A21F48011A1624168490504D5A16A25
:101C3000012363F30D31A162A16A0023C9044FF0AF
:101C4000000144BFE16A21F00601E1626FF0020188
:101C500084F824300160816801F46021B1F5602FBF
:101C600006D190420AD1DCF8001011F4702F05D093
:101C7000816841F480118160002010BD816841F4C9
:101C8000A0018160002010BDDCF8001011F4702F5D
:101C9000C6D0A16A41F48011A162DCF800104905A8
:101CA000C5D4C9E710B5D0E90FCE0168DCF8003023
:101CB0000A6823FA0EF35C072AD512F0040427D031
:101CC0000A68920603D40A6822F004020A602F22EE
:101CD000C4F20202914240F20402C4F202025BDD4D
:101CE0003023C4F20203994272D04423C4F20203A7
:101CF000994273D05823C4F20203994240F07A808B
:101D00004FF480231360C16A002940F098806FE08F
:101D10009C0727D512F0020424D00A68920606D444
:101D20000A6822F00A020A60012280F821202F228C
:101D3000C4F20202914240F20402C4F202023BDD0C
:101D40003023C4F20203994260D04423C4F2020358
:101D500099425FD05823C4F20203994260D14FF4F4
:101D6000003365E01B0743D512F0080208BF10BD21
:101D70000A6822F00E020A60012101FA0EF2CCF884
:101D80000420816380F82110016B0022002980F873
:101D9000202054D12CE000BF0823C4F20203994252
:101DA00022D01C23C4F20203994223D140231360A2
:101DB000C16A002943D11BE00823C4F202039942FF
:101DC0002CD01C23C4F20203994229D120232FE0F6
:101DD0004FF480631360C16A89BB09E04FF480430C
:101DE0001360C16A59BB03E004231360C16A31BBAD
:101DF00010BD00BF02F168044FF08063A14208BF2C
:101E00004FF480031360C16AC9B9F1E74FF400735E
:101E10000EE000BF4FF400530AE000BF022307E0CA
:101E200002F168044FF00073A14208BF4FF40013A1
:101E30001360816A0022002980F82020D8D0BDE8F4
:101E400010400847014600284FF0010008BF7047C6
:101E50002DE9F0470A684FF6F873CBF6FD7302EBF5
:101E6000030C4CF6CD43CCF6CC43ACFB033C6FF0FB
:101E70000307002607EA9C07C4F2020601F10C0AD8
:101E8000C1E90F670227D1E9013E9AE83004D1E9A0
:101E9000069881F82170176843F6F076B7433B4304
:101EA00043EA0E0323432B4343EA0A0343EA0903AD
:101EB00043EA0803136000228A6381F8210081F855
:101EC00020200020BDE8F04770470000B0B5044670
:101ED00000F018F9054640F20000C2F20000007858
:101EE000611C18BF044400BF00F00CF9401BA04265
:101EF000FAD3B0BD2DE9F04F82B00E68002E00F08D
:101F0000FD8041F20042C4F20102042340F2004E7F
:101F1000904208BF03234FF6FF7CC4F2010E0093EA
:101F200000240123C1F2100C4FF0000A4FF0000909
:101F300044E000BF012704F00C030F229A402BEA73
:101F4000020207FA03F34FEA9A051A4346F82520DE
:101F50004E6840F20C45F202DEF8082054BF22EA37
:101F6000080242EA0802C4F20105CEF808202A68F5
:101F7000B30254BF22EA080242EA08022A60B3030D
:101F8000DEF8042054BF22EA080242EA0802F30302
:101F9000CEF80420DEF800204FF0010354BF22EAFF
:101FA000080242EA0802CEF800200E680AF1010A8F
:101FB00036FA0AF204F1040400F0A08003FA0AFBE6
:101FC00016EA0B08F1D04E68664511DC122E55D882
:101FD000DFE806F0340A44485454545454545454DA
:101FE00054545454544C5000D1F80C9046E000BF67
:101FF0004FF6FF72C1F2210296420FDC0022C1F2BD
:10200000110296421AD00022C1F21202964215D055
:102010000022C1F22102964210D02FE00022C1F22C
:10202000220296420AD00022C1F23102964205D025
:102030000022C1F23202964220D100BF8A684AB122
:10204000012A14BFC0F814B0C0F810B04FF008094E
:1020500014E000BF4FF0040910E000BFCA6802F1AD
:1020600008090BE04FF0000908E000BFCA6802F160
:10207000040903E0CA6802F10C0900BF22460646C3
:10208000B8F5807F24BF203A043637680F25954085
:1020900027EA050509FA02F22A433260CA79D20614
:1020A0007FF583AF41F21803C4F202031A68AEF55C
:1020B0007E7642F001021A601A6802F00102019273
:1020C000019A2AF0030256F802B040F60002C4F268
:1020D0000102904210D040F60042C4F20102904248
:1020E0003FF428AF41F20002C4F20102009F904287
:1020F00008BF02271FE700BF00271CE702B0BDE8AA
:10210000F08F000040F2A010C2F20000006870479B
:10211000002804BF01207047F0B581B0044690F854
:102120003D0028B9002084F83C00204600F09AFACF
:10213000242084F83D002068016821F0010101603D
:10214000016841F400410160016821F4004101602F
:1021500000F050FD636848F2A16CC0F2010C40F63B
:102160000011C0F23D0163453CBF48F28041C0F21E
:102170001E01884202D2012001B0F0BD4DF68361FC
:10218000C4F21B31A0FB01122168970CD1F804E0C6
:102190004FF496762EF03F0545EA92454D60774321
:1021A00048F638160D6AC0F24106A7FB067625F000
:1021B0003F07634538BF960C721C3A430A62CA69EE
:1021C00048F2A0664CF6FF77C0F20106B34222EA5D
:1021D00007020BD801385B00B0FBF3F001306FF35E
:1021E0001F30042898BF04201BE000BFA7680138F7
:1021F00057B119277B43B0FBF3F001306FF31F3069
:1022000070B100F5804007E003EB4303B0FBF3F04F
:1022100001306FF31F3018B100F5004001E000BF3E
:1022200001201043C8610868D4E9072320F0C000EA
:10223000104318430860886848F2FF3204F10C0725
:1022400090438CCF18431043A6698860C86820F07B
:10225000FF0038433043C860086840F00100086060
:1022600000202021206484F83D10206384F83E0083
:1022700001B0F0BD2DE9F04F83B01E46924688466E
:102280000446FFF73FFF94F83D10202924D1216830
:10229000054600BF886980071AD5FFF733FF401B4A
:1022A00021681A28F6D388698007F3D500202021F9
:1022B000206384F83D1084F83E00216C022641F032
:1022C0002001216484F83C00304603B0BDE8F08F63
:1022D00094F83C00012805D10226304603B0BDE841
:1022E000F08F00BF4FF0010984F83C900868C007E8
:1022F00003D1086840F0010008600868002720F456
:1023000000600860242084F83D000020CFF6FF70B4
:102310002764E06208F0FE08BAF1010F88BFD146D9
:102320004FF0A00A4FF0200B04E000BF01374F45EB
:1023300000F09A800868002240F48070086020460F
:102340004FF001113346009501F0DEF821680028B6
:1023500056D1C1F81080FFF7D5FE21684B694A6954
:1023600094F83D50A02D054605D013F0020008BF9B
:1023700012F480601AD084F83DB048690A6880077A
:1023800042F400720A6047D46FF48060486100BF75
:1023900088698007CAD5FFF7B5FE401B21681A2857
:1023A000F6D388698007F3D54CE000BFB6B100BF13
:1023B000FFF7A8FE401BB04288BF84F83DA021680B
:1023C0004A69486994F83D30A02BD4D012F002023B
:1023D00008BF10F48060EBD0CDE700BFFFF792FE9E
:1023E00084F83DA021684A69486994F83D30A02BE3
:1023F000C1D012F00202BED110F48060EED0BAE774
:1024000008680326C00544BF4FF4007020643046BE
:1024100003B0BDE8F08F00BF002602964869029025
:10242000886902900298886901E000BF806980078E
:1024300020D5FFF767FE411B20681A29F6D3816972
:102440008907F3D500202021206384F83D1084F80B
:102450003E00216C41F020012164012684F83C00FB
:10246000304603B0BDE8F08F202084F83D00002006
:10247000F3E700BF202084F83D0084F83C6030463C
:1024800003B0BDE8F08F00002DE9F04383B01E4695
:10249000174689460446FFF735FE94F83D1020297B
:1024A00024D10546206800BF816989071AD5FFF746
:1024B00029FE411B20681A29F6D381698907F3D5C3
:1024C00000202021206384F83D1084F83E00216C18
:1024D00041F02001216484F83C00022003B0BDE8F3
:1024E000F08300BF94F83C10012903D1022003B00F
:1024F000BDE8F083012184F83C100168C90703D1CD
:10250000016841F001010160016840F2020821F414
:1025100000610160212184F83D10102184F83E10F3
:102520000021216467626685618DC0F20108218502
:10253000A8F10211E162E16A0A9E11F5803F18BF1D
:1025400001291DD1016841F48071016020464FF0DE
:10255000011100223346009500F0D6FF50B12068EB
:102560000068C00544BF4FF400702064012003B030
:10257000BDE8F0832069B0F5804F07D1FE2015E05B
:102580000829DFD0216B1229DCD0DFE7062000EA22
:10259000D9102168F030086108F106012046324662
:1025A0002B4601F097F80028E0D1FF20216800EACF
:1025B000090008612046414632462B4601F08AF860
:1025C0000028D3D1002002902068416902918069DF
:1025D0000290029806E000BF204631462A4600F0ED
:1025E00035FF18BB208D68B3204631462A4601F0DE
:1025F000DDF8D8B9606A2168024612F8013B0B6128
:102600006262628D013A6285228D531E23854F6975
:102610007F07E1D51B04DFD0437802300B61606295
:10262000608D01386085901E2085D5E7206C0428D8
:102630009CD12068016841F400710160012003B061
:10264000BDE8F0832068016841F40071016020203A
:1026500084F83D00002084F83E0084F83C0003B07C
:10266000BDE8F08310B586B045F200410068C4F2C1
:10267000000100228842049202D006B010BD00BFC3
:1026800041F21804C4F20204206840F008002060FF
:10269000206800F0080001900198C02002901220EC
:1026A00003900320059001F5384002A9FFF722FCB2
:1026B000606840F400106060606800F400100190F1
:1026C000019806B010BD000040F2000040F2A011D9
:1026D000C2F20000C2F2000100780A6810440860EB
:1026E0007047000080B542F20000C4F202000168A9
:1026F00041F010010160032000F08CF80F2000F081
:1027000005F800F027F8002080BD000070B540F209
:102710000006C2F2000640F208013278C2F200015F
:102720004FF47A730968B3FBF2F20446B1FBF2F19D
:10273000084600F087FC0F2C4FF0010508D838B987
:102740004FF0FF3021460022002500F037F874607A
:10275000284670BD82B041F21800C4F20200016840
:10276000022241F001010160016801F001010191C3
:102770000199416841F080514160406800F080500B
:10278000009000980420C4F20100016862F31A610D
:10279000016002B070470000002848BF704700F099
:1027A0001F01012202FA01F11C2202EAD0004EF2BE
:1027B0000012CEF2000281507047000010B54EF6B4
:1027C0000C5CCEF2000CDCF80030C3F3022E8EF06D
:1027D0000704042C28BF0424BEF103034FF0FF3E7E
:1027E0000EFA04F438BF0023A14399400EFA03F314
:1027F0009A43114300F00F0200F160430901043ACB
:1028000003F564436244002848BF02F10C031970C9
:1028100010BD00004EF60C51CEF200010A684FF6D2
:10282000FF031A4060F30A2242F0806040F0FD701E
:102830000860704701280FD002282DD0102808D139
:1028400041F20401C4F202010A6851F8040CC0010B
:1028500034D40020704700BF41F20400C4F20200EB
:10286000C16940F202320A40B2F5817F04BF4FF4E1
:102870000040704701F44071B1F5407F2AD0B1F5B6
:10288000007F1CBF00207047006A49F64041800766
:1028900001EAE070704700BF80B500F0BFF941F277
:1028A0000401C4F2020109680222C1F3813102EB82
:1028B0004101B0FBF1F0BDE880407047C2F38340B6
:1028C00015A3185CD2030DD440F60012C0F23D02ED
:1028D000504313E050F8040C4FF22441800301EA06
:1028E000E07070470A6810A3C2F340429A5C41F25C
:1028F0000023C0F27A03B3FBF2F2504309684902A5
:1029000048BF70474AF6AB214000CAF6AA21A0FB97
:1029100001014808704700BF0203040506070809C3
:102920000A0B0C0D0E0F1010010200002DE9F041F2
:1029300082B00446007841F21C06C007C4F20206C9
:102940004AD030685FEAC00808D4306840F0805050
:102950003060306800F080500190019847F2000725
:10296000C4F200073868C00512D4386840F480709B
:102970003860FFF7C7FB05463868C00508D4FFF785
:10298000C1FB401B6428F7D9032002B0BDE8F081E9
:10299000706810F4407012D0616801F44071884290
:1029A0000DD0706840F24042C4F24222012320F46C
:1029B000407113600023C0071360716026D17068F6
:1029C000616820F440700843B8F1000F706003D4D0
:1029D000306820F0805030602068810707D556F8B5
:1029E000181CA26821F44041114346F8181CC00687
:1029F00007D556F8180CE16820F48000084346F823
:102A0000180C002002B0BDE8F08100BFFFF77AFB90
:102A1000054641F2883700BF70688007CFD4FFF7C2
:102A200071FB401BB8424FF00300F5D9EAE7000004
:102A3000002804BF012070472DE9F04381B042F225
:102A40000008C4F202080446D8F800000D4600F061
:102A5000070088420CD2D8F8000020F00700284375
:102A6000C8F80000D8F8000000F00700A8426CD1B8
:102A7000206841F204098107C4F2020917D5410711
:102A800005D5D9F8001041F4E061C9F8001001073C
:102A900005D5D9F8001041F46051C9F80010D9F8F3
:102AA0000010A26821F0F0011143C9F80010C0071E
:102AB00042D1D8F8000000F00700A8420CD9D8F89D
:102AC000000020F007002843C8F80000D8F80000F4
:102AD00000F00700A84238D12068410707D5D9F88F
:102AE0000010E26821F4E0611143C9F8001000070A
:102AF00008D5D9F80000216920F4605040EAC100EF
:102B0000C9F80000D9F8002002F00C00082841F2B2
:102B10000020C0F27A0051D144F29263C2F38341A3
:102B2000C0F60003595CD2033CD440F60010C0F25A
:102B30003D00484342E000BF606802280AD00128F7
:102B40002AD159F8041C890308D4012001B0BDE83A
:102B5000F08300BF59F8041C8901F6D5D9F800109C
:102B600021F003010843C9F80000FFF7CBFA06463D
:102B700041F28837D9F80000616800F00C00B0EB32
:102B8000810F96D0FFF7BEFA801BB842F2D903201E
:102B900001B0BDE8F08300BF59F8041C8907D4D503
:102BA000DCE700BFD9F8002044F29063C2F3404252
:102BB000C0F600039A5C4843B0FBF2F0D9F800106D
:102BC00044F27862C1F30311C0F60002515C40F296
:102BD000080220FA01F140F20400C2F2000000688D
:102BE000C2F200021160FFF791FD002001B0BDE8C4
:102BF000F083000040F2080041F20401C2F200003C
:102C0000C4F202010068096844F28862C1F302213B
:102C1000C0F60002515CC8407047000040F2080056
:102C200041F20401C2F20000C4F202010068096826
:102C300044F28862C1F3C221C0F60002515CC84070
:102C400070470000002804BF012070472DE9F041C3
:102C500082B00446007841F20006C007C4F20206C2
:102C60000CD0706800F00C00042840F081803068BF
:102C7000800303D56068002800F04E81207880072B
:102C80001BD5706810F00C0F09D0706800F00C00B4
:102C9000082840F08B807068C00300F1878030689E
:102CA000800703D52069012840F0368130686169CA
:102CB00020F0F80040EAC10030602078000713D40B
:102CC000207840072CD4E569002D00F02081706841
:102CD00000F00C00082840F0AF80012D40F00C817E
:102CE000012002B0BDE8F081A069002800F08C80CE
:102CF0000020C4F242200121C0F88014FFF702FA3C
:102D0000054600BF706A800700F1BA80FFF7FAF944
:102D1000401B0228F6D9032002B0BDE8F08100BFB5
:102D2000F0695FEAC00808D4F06940F08050F061B3
:102D3000F06900F080500090009847F20007C4F25C
:102D400000073868C0054DD4386840F4807038609A
:102D5000FFF7D8F9054600BF3868C00542D4FFF731
:102D6000D1F9401B6428F7D9032002B0BDE8F081F7
:102D7000706800F00C00082803D17068C0033FF5AC
:102D800076AF6068002800F00981B0F5A02F00F050
:102D90001D81B0F5803F00F01D81306820F4803047
:102DA0003060306820F4802017E100BF20690028DF
:102DB00040F20000C4F2422000F08C80012101604A
:102DC000FFF7A0F9054600BF306880073FF56EAFFA
:102DD000FFF798F9401B0228F6D9032002B0BDE89E
:102DE000F08100BFE068002800F09A80052800F01C
:102DF000B180012800F0B280306A20F0010030621A
:102E0000306A20F00400ACE00020C4F2422000212F
:102E1000C0F88014FFF776F9054600BF706A800796
:102E20007FF54EAFFFF76EF9401B0228F6D903205D
:102E300002B0BDE8F08100BF0027C4F242270020A5
:102E40003866FFF75FF9022D05460DD13068800125
:102E500040F1D680FFF756F9401B02284FF00300DF
:102E6000F4D902B0BDE8F081306880014FD5FFF79A
:102E700049F9401B02284FF00300F5D9F1E700BFE4
:102E800040F20800C2F20000006844F6D351C1F2DB
:102E90006201A0FB0101480A019000BF00BF019838
:102EA000411E002801913FF40BAF00BF0198411E65
:102EB000002801913FF404AF00BF0198411E002893
:102EC00001913FF4FDAE00BF0198411E0028019121
:102ED000E4D1F5E600210160FFF714F9054600BFD3
:102EE000306880077FF5E9AEFFF70CF9401B022838
:102EF0004FF00300F4D9B4E77068216A00F480321F
:102F00008A4209D1616A00F47010884204D100201D
:102F100002B0BDE8F08100BF012002B0BDE8F08141
:102F2000306A20F001003062306A20F00400306224
:102F3000FFF7E8F8054641F2883700BF306A80079E
:102F400022D5FFF7DFF8401BB8424FF00300F5D958
:102F500087E700BF306A40F004003062306A40F01A
:102F600001003062FFF7CEF8054641F2883700BF16
:102F7000306A800708D4FFF7C5F8401BB842F7D97C
:102F8000032002B0BDE8F081B8F1000F3FF59BAE21
:102F9000F06920F08050F06195E600BF306820F4C1
:102FA00080303060306820F480203060FFF7AAF86D
:102FB000054600BF306880037FF560AEFFF7A2F8DA
:102FC000401B64284FF00300F4D94AE7306840F40E
:102FD00080203060306840F480303060FFF792F835
:102FE000054600BF306880033FF548AEFFF78AF81A
:102FF000401B6428F6D9032002B0BDE8F08100BF71
:10300000206AB0F5803F05D17168A26821F40031D3
:10301000114371607168626A21F4741111430843AD
:10302000706001203866FFF76DF804463068800153
:103030003FF56DAFFFF766F8001B02284FF0030065
:10304000F4D90EE7411E0020B0EB116F1CBF012028
:1030500070474EF21002CEF2000251604EF623513C
:10306000CEF20001F0230B700721906011607047D1
:10307000002804BF0120704710B5044690F84100B5
:1030800028B9002084F84000204600F063F824208E
:1030900084F841002068D4E90212C36823F4005385
:1030A000C360036923F440531A430261D4E9042343
:1030B0001143C268194341F20C639A431143C16042
:1030C0004169A26921F44071114343F60002C4F240
:1030D00001029042416103D0FFF78CFD02E000BF86
:1030E000FFF79CFDD4E90023192148439900B0FB68
:1030F000F1F048F21F5CC5F2EB1CA0FB0C314FF65F
:103100009C734909C0F6FF7301FB0300322303EBF4
:103110000010A0FB0C03F02000EA531000EB01109C
:10312000C3F34311084490601069202120F49040BB
:103130001061506920F02A005061D06840F40050BE
:10314000D0600020606484F8411084F8421060630D
:1031500010BD000070B586B040F60004C4F2010452
:10316000006804F5405100268842049602D006B05B
:1031700070BD00BF41F21800C4F20200016802AD48
:1031800041F480410160016801F48041019101999D
:10319000016841F0040101600068294600F0040064
:1031A000019001984FF400700290022003900320D8
:1031B00005902046FEF79EFE4FF48060CDE90206A2
:1031C000204629460496FEF795FE06B070BD000025
:1031D0002DE9F04381B0044690F84100202840F0EA
:1031E000B180884600294FF0010000F0D6801646D5
:1031F000002A00F0D2800020606421201D4684F85F
:103200004100FEF77FFFA684E684A1680646B1F57B
:10321000805F03D12069002800F0988047464FF076
:103220000008E18C2068002900F0968005F1010972
:103230000BE000BF47B317F8011B4160E18C013977
:10324000E184E18C002900F0878001680906F1D44F
:10325000B9F1000F0AD0EDB1FEF754FF801BA84270
:1032600018D8206801680906F6D5E3E70168090661
:10327000E0D4016809065CBF01685FEA0161D9D446
:1032800001680906F2D5D5E738F8021B00276FF36D
:103290005F21D2E7206850E8030F216820F4D07046
:1032A00041E80302BAB3206850E8030F216820F414
:1032B000D07041E8030272B3206850E8030F216820
:1032C00020F4D07041E803022AB3206850E8030FCD
:1032D000216820F4D07041E80302002ADAD11AE014
:1032E000206850E8050F216820F0010041E8050240
:1032F000DAB1206850E8050F216820F0010041E8AC
:10330000050292B1206850E8050F216820F0010005
:1033100041E805024AB1206850E8050F216820F015
:10332000010041E80502002ADAD1202084F841009A
:1033300084F84200002084F84000032001B0BDE87A
:10334000F08300BF022001B0BDE8F0830027E18CCC
:10335000206800297FF46AAF0168490619D4FDB1DD
:10336000691C0DD10168490613D4016849065CBF88
:1033700001685FEA41610CD401684906F2D508E0B2
:10338000FEF7C0FE801BA8420AD8206800684006ED
:10339000F6D5202084F84100002001B0BDE8F0837C
:1033A000206850E8030F216820F4D07041E8030240
:1033B000002A3ED0206850E8030F216820F4D07026
:1033C00041E80302AAB3206850E8030F216820F403
:1033D000D07041E8030262B3206850E8030F21680F
:1033E00020F4D07041E80302002AD9D121E000BFC7
:1033F000206850E8050F216820F0010041E805022F
:10340000002A3FF492AF206850E8050F216820F0B1
:10341000010041E80502002A3FF487AF206850E828
:10342000050F216820F0010041E80502002A3FF461
:103430007CAF206850E8050F216820F0010041E8CA
:103440000502002AD4D170E7FEE7000070B50368DA
:10345000044653F8140F400711D40E46481C29D0D7
:1034600086BB00BF1868400527D4FEF74BFE2368D3
:1034700053F8140F400737D518684007F2D50020DD
:1034800070BD00BF18684007F9D41868400514D40F
:1034900018684007F3D4186840050ED41868400730
:1034A000EDD41868400508D4186840074FF00000B4
:1034B00048BF70BD18684005E4D56FF4806018609F
:1034C000042012E0154603E053F8140F4007D6D449
:1034D00018684005F1D4FEF715FE401B2368B04282
:1034E000F2D958694007EFD420200021202221631F
:1034F00084F83D2084F83E10226C104320640120A3
:1035000084F83C1070BD00002DE9F04105460068CC
:103510001E46144601F47F0201338FB242D0DDF81B
:103520001880B2F5803F40F0878040693840C01B6A
:10353000B0FA80F04009A04240F0C8804EB924E0C3
:1035400040693840C01BB0FA80F04009A04240F00A
:10355000BD80FEF7D7FDA0EB08012868B142EFD986
:1035600041693940C91BB1FA81F14909A142E7D14A
:103570009BE000BF40693840C01BB0FA80F04009B2
:10358000A0424FF0000040F0A280FEF7BBFD28688B
:1035900041693940C91BB1FA81F14909A142E9D118
:1035A00083E000BFB2F5803F24D100BF41693940BC
:1035B000C91BB1FA81F14909A14240F087804169F4
:1035C0003940C91BB1FA81F14909A14240F07E801E
:1035D00041693940C91BB1FA81F14909A14275D14C
:1035E00041693940C91BB1FA81F14909A142DDD0D5
:1035F0006CE000BF81693940C91BB1FA81F149090A
:10360000A14263D181693940C91BB1FA81F14909ED
:10361000A1425BD181693940C91BB1FA81F14909E5
:10362000A14253D181693940C91BB1FA81F14909DD
:10363000A142DFD04AE000BF80693840C01BB0FA29
:1036400080F04009A04241D146B923E0806938406A
:10365000C01BB0FA80F04009A04237D1FEF752FDFE
:10366000A0EB08012868B142F0D981693940C91B33
:10367000B1FA81F14909A142E8D116E080693840E8
:10368000C01BB0FA80F04009A0424FF0000018BF04
:10369000BDE8F081FEF736FD286881693940C91B15
:1036A000B1FA81F14909A142E8D100202021286323
:1036B00085F83D1085F83E00296C41F02001296411
:1036C00085F83C000120BDE8F08100BF0020BDE886
:1036D000F0810000F0B581B0044600681D464369E2
:1036E0008FB203EA0701B94202D1002001B0F0BD58
:1036F0004169164601323FD049053FD4CEB100BFE3
:10370000FEF700FD411B2068B14203D941693940F1
:10371000B94215D141693940B942E6D041694905FC
:10372000EED52BE041693940B942DED04169490507
:1037300024D4FEF7E7FC206841693940B942F1D052
:10374000202023E041693940B942CED04169490582
:1037500014D441693940B942C7D0416949050DD4F3
:1037600041693940B942C0D04169490506D441692F
:103770003940B942B9D041694905E3D5016841F4FE
:10378000007101606FF480614161042000212022FA
:10379000216384F83D2084F83E10226C104320649D
:1037A00084F83C10012001B0F0BD000070B5036842
:1037B000044653F8140F000611D40E46481C29D0B5
:1037C00086BB00BF1868400527D4FEF79BFC236822
:1037D00053F8140F000637D518680006F2D50020FC
:1037E00070BD00BF18680006F9D41868400514D4ED
:1037F00018680006F3D4186840050ED4186800064F
:10380000EDD41868400508D4186800064FF0000091
:1038100048BF70BD18684005E4D56FF4806018603B
:10382000042012E0154603E053F8140F0006D6D426
:1038300018684005F1D4FEF765FC401B2368B042D0
:10384000F2D958690006EFD42020002120222163FC
:1038500084F83D2084F83E10226C1043206401203F
:1038600084F83C1070BD0000FEE70000FEE7000099
:103870007047000070470000FEF726BF7047000049
:10388000FEE70000F0B583B004463220FEF71EFBD1
:1038900040F2B805C2F2000520464E2105224FF441
:1038A000FA736C604E24FEF7E5FC68B168687E210F
:1038B00005224FF4FA737E24FEF7DCFC20B10024CD
:1038C000204603B0F0BD00BF2D202C70FEF7FEFA9D
:1038D00043F63C0768682978C0F60C07C82602AA98
:1038E000042302970096FEF7CFFD0520FEF7EEFABF
:1038F0006868297802AA042302970096FEF7C4FD9F
:1039000001200124FEF7E2FA6868297802AA04235C
:1039100002970096FEF7B8FD0820FEF7D7FA42F6A8
:103920002C02C0F60C0268682978029202AA0423CD
:103930000096FEF7A9FD0820FEF7C8FA42F62C0211
:10394000C8F68C0268682978029202AA04230096BD
:10395000FEF79AFD0120FEF7B9FA40F60C02C8F610
:103960008C0268682978029202AA04230096FEF766
:103970008BFD0120FEF7AAFA40F60C02C1F61C02EC
:1039800068682978029202AA04230096FEF77CFD5B
:103990000320FEF79BFA40F60C02C6F66C0268683C
:1039A0002978029202AA04230096FEF76DFD0120F9
:1039B000FEF78CFA40F60C02CCF6CC026868297847
:1039C000029202AA04230096FEF75EFD0320FEF792
:1039D0007DFA204603B0F0BD83B02DE9F04388B0F6
:1039E00005460FA802AC0EC00FAA20462946019238
:1039F000FCF756FC9DF8080080B340F2B8064FF083
:103A0000FF35C2F200064FF0C8080DF11C0900BFD7
:103A1000601940780423010120F00F0000F10D022D
:103A200009308DF81D0001F10D008DF81C208DF876
:103A30001E0001F10902706831788DF81F204A4696
:103A40006F1CCDF80080FEF71FFD2046FCF762FDDD
:103A50000E2F03D8A91C88423D46D9D808B0BDE82E
:103A6000F04303B07047000080B584B00A0102F152
:103A70000C0102F1080288B18DF80E1040F2B80175
:103A80004CF6CC00C2F20001ADF80C004868097891
:103A90008DF80F204FF0C80C03AA10E08DF80A1023
:103AA00040F2B80148F68C00C2F20001ADF80800FF
:103AB000486809788DF80B204FF0C80C02AA04233F
:103AC000CDF800C0FEF7E0FC04B080BD94B0FEF776
:103AD00009FE00240120CDE90F44CDE90D440A90F0
:103AE0000E904FF4E0104FF48031022513900AA895
:103AF0000494CDE90244CDE90B14CDE91151FFF74F
:103B0000A1F828B1EFF3108072B600BFFEE700BF46
:103B10000F20CDE905054FF48060CDE9080405A824
:103B200002210794FEF784FF20B1EFF3108072B6F4
:103B3000FEE700BF022001904FF40040039001A86F
:103B4000FEF7F4FE20B1EFF3108072B6FEE700BF7F
:103B500041F21800C4F20200016845F2004541F04C
:103B6000200101600168002201F020010A910A99F8
:103B70000168C4F2000541F00401016001680024FD
:103B800001F004010A910A99016841F008010160FD
:103B9000016801F008010A910A9950F8041C41F0EB
:103BA000010140F8041C50F8040C002100F0010051
:103BB0000A900A980B20FEF701FE0B20FEF7ECFDA1
:103BC00040F27008C2F2000805F55041404640F846
:103BD000181F01264FF4602106730475C161C0E906
:103BE00001440661FDF7B8FD20B1EFF3108072B615
:103BF000FEE700BFCDE90A460C9408F118040AA9B3
:103C00002046FDF76FFC28B1EFF3108072B600BFBD
:103C1000FEE700BF40F2041048F2A061C2F20000CB
:103C2000C0F2010100264FF48042C0E90051C0E912
:103C30000266C0E90426C0E906660662FEF768FA75
:103C400020B1EFF3108072B6FEE700BF40F25810CB
:103C500005F56441C2F200000C234FF4E13280E824
:103C60004600C0E90366C0E90536C661FFF700FA01
:103C700020B1EFF3108072B6FEE700BF40F20410EF
:103C8000C2F20000FFF7FEFD00200321FFF7ECFE6B
:103C900022A0FFF7A1FE40F2581908F10205C2F276
:103CA00000090FF2900A0AAF0FF28C0B23A600BF97
:103CB0002046FDF791FF20466421FDF759FE20467E
:103CC000FDF7CEFCA8F8000082B2284616A1FCF74A
:103CD000F9FA2846FCF71EFC82B2484629464FF006
:103CE000FF33FFF775FAB8F8002038465146FCF765
:103CF000E9FA01200521FFF7B7FE58463946FFF7DC
:103D00006BFE4FF4FA70FEF7E1F801200021FFF797
:103D1000ABFE3046FFF760FECAE700BF4E494C419C
:103D200049204144430000004144433A202568753E
:103D3000200D0A00256400002573000020202020AB
:103D400020202020202020202020202000000000F3
:103D50005FEA400C08BF91F0000F4FEA8C234FEA56
:103D6000C12243EA51514FEA1C5018BF00F5F04000
:103D70004FEA300018BF41F000415FEA6C5C00F090
:103D80002980BCF1FF3F08BF40F080407047130C12
:103D900006BF12044FF0100C4FF0000C130E04BFBE
:103DA00012020CF1080C130F04BF12010CF1040CE9
:103DB000930F04BF92000CF1020CD30F04BF52000A
:103DC0000CF1010C11464FF00002A0F11F00A0EB16
:103DD0000C00704711F0004F08BF704731F00041F0
:103DE0003FF4D5AF0B0C06BF09044FF0100C4FF099
:103DF000000C0B0E04BF09020CF1080C0B0F04BFE2
:103E000009010CF1040C8B0F04BF89000CF1020CAA
:103E1000CB0F04BF49000CF1010CCCF1200322FAB6
:103E200003F341EA030102FA0CF2A0EB0C0000F1EB
:103E30000100704723F07F4720F07F4C80EA0300A9
:103E400000F00040ACEB070303F57C5303F1FF03E4
:103E50002DE9804909B44FEA144324EA03484FEAA4
:103E6000154B25EA0B4E0FF2042606EB13273E787E
:103E700003FB0667C7F5000707FB06F64FEAD646C1
:103E800006F102064FEA543707FB066CCCF1005CE2
:103E90004FEA1C472CEA074C0CFB06F507FB06F41F
:103EA00004EB15464FEA961649085FEA320234BF22
:103EB00000204FF000404FEAD13706FB07FC4FEAE5
:103EC0001C4C0CFB0BF7D21B03FB0CF761EB07013F
:103ED0000CFB0EF7B0EB074072EB17420CFB08F738
:103EE00034BFA2EB0742B2EB074261EB17414FEA46
:103EF0000C444FEA910706FB07FC4FEA1C4C0CFBF5
:103F00000BF7B0EBC74072EB573203FB0CF734BF33
:103F1000A2EBC742B2EBC74261EB57310CFB0EF785
:103F2000B0EBC70072EB57720CFB08F734BFA2EB83
:103F3000C702B2EBC70261EB57714FEA816141EAF8
:103F400092114FEA826242EA90124FEA806004EBDB
:103F5000CC04039F4FEAD13706FB07FC4FEA1C4C09
:103F60000CFB0BF7D21B03FB0CF761EB07010CFBFF
:103F70000EF7B0EB074072EB17420CFB08F734BFAB
:103F8000A2EB0742B2EB074261EB17414FEA8C55B7
:103F900004EB9C244FEA910706FB07FC4FEA1C4CFC
:103FA0000CFB0BF7B0EBC74072EB573203FB0CF77F
:103FB00034BFA2EBC742B2EBC74261EB57310CFBF7
:103FC0000EF7B0EBC70072EB57720CFB08F734BF6B
:103FD000A2EBC702B2EBC70261EB57714FEA8161F6
:103FE00041EA92114FEA826242EA90124FEA8060FF
:103FF00015EB4C2544F100044FEAD13706FB07FCD2
:104000004FEA1C4C0CFB0BF7D21B03FB0CF761EBCC
:1040100007010CFB0EF7B0EB074072EB17420CFBED
:1040200008F734BFA2EB0742B2EB074261EB17413E
:104030004FEA813141EA92414FEA823242EA9042AC
:104040004FEA80304FEA0C7615EB1C1544F1000462
:1040500048EA03434EEA0B484FF0000EB2EB080C5F
:1040600071EB030724BF624639464EEB0E0E4FF04C
:10407000000B0018524149414BEB0B0BB2EB080C03
:1040800071EB03077BF1000B24BF624639464EEB10
:104090000E0E4FF0000B0018524149414BEB0B0B39
:1040A000B2EB080C71EB03077BF1000B24BF6246F7
:1040B00039464EEB0E0E51EA020718BF46F00106D4
:1040C00016EB0E7655F1000254F1000103D5BDE860
:1040D0008901BDE80088BDE88901BDE80048B6193E
:1040E000524141EB0101A3F10103704780807F7EC3
:1040F0007D7C7B7A7978777676757473727171705E
:104100006F6E6E6D6C6C6B6A6A696868676666650F
:104110006464636362616160605F5F5E5E5D5D5C9D
:104120005C5B5B5A5A59595858575756565555550E
:104130005454535352525251515050504F4F4F4E6E
:104140004E4D4D4D4C4C4C4B4B4B4A4A4A494949BC
:1041500048484847474747464646454545444444FE
:104160004443434343424242424141419C46002B27
:1041700030D477002BD04FEA37071CB503B44FF08B
:1041800010004FF01001BAF1000F06D0BCF1000F83
:10419000DCBF40F0080040F008014FF000000FBC09
:1041A000BDE810400BF1010BBBF1010F08BF5FEA46
:1041B000170722BF12F1010211F101014FF0004176
:1041C00043F1000300F0004043EA00007047F9D3D8
:1041D0005708D0E746EA06464FEA164613F1400F65
:1041E0001FDD13F1200FDFBF16430A4600212033E5
:1041F0005B42BED0C3F1200746EA06464FEA1646A8
:1042000002FA07F746EA070622FA03F2C3F120078B
:1042100001FA07F742EA070221FA03F14FF000031F
:10422000A7E746EA020646EA06464FEA164646EA87
:104230000106BCBF46EA0646360C4FF000034FF0BD
:1042400000024FF0000194E72DE9804C70B49A46CB
:10425000934691E8380007C831EA400C48BF34EA79
:10426000430C03D5FFF7E6FDFFF780FFF0BCBDE888
:10427000008C2DE9804C70B49A46934691E8380042
:1042800007C810F0804F08BF13F0804F03D100F033
:1042900005F8FFF76BFFF0BCBDE8008C20F07F470E
:1042A00023F07F4C80EA030000F0004007EB0C0392
:1042B000A3F57C53A3F1FE0392F0000F00F0B3804E
:1042C00095F0000F00F077802DE901494FEA114089
:1042D00021EA00484FEA144624EA064700FB06FCA0
:1042E00008FB06F607FB08F818EB06484CEB164CE3
:1042F00000FB07F718EB07484CEB17404FEA124B4F
:1043000022EA0B4E4FEA154625EA06470BFB06FC50
:104310000EFB06F607FB0EFE1EEB064E4CEB164C94
:104320000BFB07F71EEB074E4CEB174B18EB0B087C
:1043300040F1000018EB0E0B58EB000840F10000B4
:104340008F1A4FF000014FF000063CBFC943661BB7
:1043500014BFB5EB040C00213CBFC943F61B4FEA68
:10436000174427EA04454FEA1C472CEA074C04FB94
:10437000076205FB07F70CFB05F616EB074642EB59
:10438000174204FB0CFC16EB0C4642EB1C421BEBE9
:10439000060658EB020241414EEA8E0E46EA9E06A0
:1043A00001D5BDE80189B619524141EB0101A3F1E4
:1043B0000103BDE801894FEA144524EA05464FEAA6
:1043C000114721EA074C05FB07F406FB07F70CFB36
:1043D00006F111EB074144EB174405FB0CFC11EB14
:1043E0000C4144EB1C444FEA124722EA074C05FB00
:1043F00007F206FB07F70CFB06F616EB074642EB47
:10440000174205FB0CFC16EB0C4642EB1C456A18E8
:1044100054F1000148BF7047B619524141EB010108
:10442000A3F10103704795F0000F37D04FEA114216
:1044300021EA02464FEA144724EA074C02FB07F13F
:1044400006FB07F70CFB06F414EB074441EB17419E
:1044500002FB0CFC14EB0C4441EB1C414FEA1547EA
:1044600025EA074C02FB07F506FB07F70CFB06F6EF
:1044700016EB074645EB174502FB0CFC16EB0C460A
:1044800045EB1C42121951F1000148BF7047B619A3
:10449000524141EB0101A3F1010370474FEA14457A
:1044A00024EA05464FEA114721EA074C05FB07F1CC
:1044B00006FB07F70CFB06F212EB074241EB174134
:1044C00005FB0CFC12EB0C4251EB1C414FF00006BB
:1044D00048BF7047921841EB0101A3F101037047F7
:1044E000490050EAC12018BF04204A0D18BF40F00F
:1044F000010040F2FF72B2EB515F08BF40F00200D2
:10450000012808BF0520704730380A2801D2012051
:10451000704700207047000010B500290AD00878C5
:10452000002807D005487844FCF724FF002801D074
:10453000002010BD0248784410BD00009E0100001C
:104540009601000010B500290AD00878002807D08D
:1045500005487844FCF70EFF002801D0002010BD6C
:104560000248784410BD00008E0100008601000062
:10457000FCF709BBFCF73EBC04000008000000008B
:104580000000000200010000100000000000000018
:10459000000000003031323334353637383941428B
:1045A0004344454640305800303132333435363795
:1045B0003839616263646566403078003031323387
:1045C0003435363738396162636465667870003037
:1045D0003132333435363738394142434445465811
:1045E0005000000002400000000000A00000000099
:1045F00005400000000000C8000000000C40000062
:104600000000409C00000000194000000020BCBEDB
:104610000000000034400000BFC91B8E00000004F1
:10462000B5400000504BCFD06607E2CF010000003C
:104630006C4100003E8251AADFEEA7340100000069
:10464000D9420000DCB5A0E23A301F97FFFFFFFF20
:10465000B4450000FD25A0C8E9A3C14FFFFFFFFF3F
:10466000FF3F00000000008000000000FF3F00004E
:1046700000000080000000000000000000000000BA
:1046800001020304060708090000000001020304F8
:10469000010202030405060708090A0B0C0D0E0FA0
:1046A00010100000F047000800000020100000007B
:1046B0005001000800480008100000209807000082
:1046C000700100081C00000043000000F8FFFFFF1D
:1046D0000C0000000E0000000F0000002E00000083
:1046E0001001000043000000F8FFFFFF00404040C1
:1046F00040404040404041414141414040404040B5
:104700004040404040404040404040404005020260
:10471000020202020202020202020202022020201F
:10472000202020202020200202020202020290907B
:104730009090909010101010101010101010101079
:1047400010101010101010100202020202028888CD
:1047500088888888080808080808080808080808D9
:1047600008080808080808080202020240000000C1
:104770000000000000000000000000000000000039
:104780000000000000000000000000000000000029
:104790000000000000000000000000000000000019
:1047A0000000000000000000000000000000000009
:1047B00000000000000000000000000000000000F9
:1047C00000000000000000000000000000000000E9
:1047D00000000000000000000000000000000000D9
:1047E00000000000000000000000000000000000C9
:1047F00001000000100000000024F4000000000090
:04000005080000ED02
:00000001FF
